{
    "_format": "hh-sol-artifact-1",
    "contractName": "ERC20X",
    "sourceName": "contracts/synth/ERC20X.sol",
    "abi": [
        {
            "anonymous": false,
            "inputs": [
                {
                    "indexed": true,
                    "internalType": "address",
                    "name": "owner",
                    "type": "address"
                },
                {
                    "indexed": true,
                    "internalType": "address",
                    "name": "spender",
                    "type": "address"
                },
                {
                    "indexed": false,
                    "internalType": "uint256",
                    "name": "value",
                    "type": "uint256"
                }
            ],
            "name": "Approval",
            "type": "event"
        },
        {
            "anonymous": false,
            "inputs": [
                {
                    "indexed": false,
                    "internalType": "uint256",
                    "name": "_flashLoanFee",
                    "type": "uint256"
                }
            ],
            "name": "FlashFeeUpdated",
            "type": "event"
        },
        {
            "anonymous": false,
            "inputs": [
                {
                    "indexed": false,
                    "internalType": "uint8",
                    "name": "version",
                    "type": "uint8"
                }
            ],
            "name": "Initialized",
            "type": "event"
        },
        {
            "anonymous": false,
            "inputs": [
                {
                    "indexed": false,
                    "internalType": "address",
                    "name": "account",
                    "type": "address"
                }
            ],
            "name": "Paused",
            "type": "event"
        },
        {
            "anonymous": false,
            "inputs": [
                {
                    "indexed": true,
                    "internalType": "address",
                    "name": "from",
                    "type": "address"
                },
                {
                    "indexed": true,
                    "internalType": "address",
                    "name": "to",
                    "type": "address"
                },
                {
                    "indexed": false,
                    "internalType": "uint256",
                    "name": "value",
                    "type": "uint256"
                }
            ],
            "name": "Transfer",
            "type": "event"
        },
        {
            "anonymous": false,
            "inputs": [
                {
                    "indexed": false,
                    "internalType": "address",
                    "name": "account",
                    "type": "address"
                }
            ],
            "name": "Unpaused",
            "type": "event"
        },
        {
            "inputs": [],
            "name": "BASIS_POINTS",
            "outputs": [
                {
                    "internalType": "uint256",
                    "name": "",
                    "type": "uint256"
                }
            ],
            "stateMutability": "view",
            "type": "function"
        },
        {
            "inputs": [],
            "name": "DOMAIN_SEPARATOR",
            "outputs": [
                {
                    "internalType": "bytes32",
                    "name": "",
                    "type": "bytes32"
                }
            ],
            "stateMutability": "view",
            "type": "function"
        },
        {
            "inputs": [
                {
                    "internalType": "address",
                    "name": "owner",
                    "type": "address"
                },
                {
                    "internalType": "address",
                    "name": "spender",
                    "type": "address"
                }
            ],
            "name": "allowance",
            "outputs": [
                {
                    "internalType": "uint256",
                    "name": "",
                    "type": "uint256"
                }
            ],
            "stateMutability": "view",
            "type": "function"
        },
        {
            "inputs": [
                {
                    "internalType": "address",
                    "name": "spender",
                    "type": "address"
                },
                {
                    "internalType": "uint256",
                    "name": "amount",
                    "type": "uint256"
                }
            ],
            "name": "approve",
            "outputs": [
                {
                    "internalType": "bool",
                    "name": "",
                    "type": "bool"
                }
            ],
            "stateMutability": "nonpayable",
            "type": "function"
        },
        {
            "inputs": [
                {
                    "internalType": "address",
                    "name": "account",
                    "type": "address"
                }
            ],
            "name": "balanceOf",
            "outputs": [
                {
                    "internalType": "uint256",
                    "name": "",
                    "type": "uint256"
                }
            ],
            "stateMutability": "view",
            "type": "function"
        },
        {
            "inputs": [
                {
                    "internalType": "uint256",
                    "name": "amount",
                    "type": "uint256"
                }
            ],
            "name": "burn",
            "outputs": [],
            "stateMutability": "nonpayable",
            "type": "function"
        },
        {
            "inputs": [
                {
                    "internalType": "address",
                    "name": "account",
                    "type": "address"
                },
                {
                    "internalType": "uint256",
                    "name": "amount",
                    "type": "uint256"
                }
            ],
            "name": "burnInternal",
            "outputs": [],
            "stateMutability": "nonpayable",
            "type": "function"
        },
        {
            "inputs": [],
            "name": "decimals",
            "outputs": [
                {
                    "internalType": "uint8",
                    "name": "",
                    "type": "uint8"
                }
            ],
            "stateMutability": "view",
            "type": "function"
        },
        {
            "inputs": [
                {
                    "internalType": "address",
                    "name": "spender",
                    "type": "address"
                },
                {
                    "internalType": "uint256",
                    "name": "subtractedValue",
                    "type": "uint256"
                }
            ],
            "name": "decreaseAllowance",
            "outputs": [
                {
                    "internalType": "bool",
                    "name": "",
                    "type": "bool"
                }
            ],
            "stateMutability": "nonpayable",
            "type": "function"
        },
        {
            "inputs": [
                {
                    "internalType": "address",
                    "name": "token",
                    "type": "address"
                },
                {
                    "internalType": "uint256",
                    "name": "amount",
                    "type": "uint256"
                }
            ],
            "name": "flashFee",
            "outputs": [
                {
                    "internalType": "uint256",
                    "name": "",
                    "type": "uint256"
                }
            ],
            "stateMutability": "view",
            "type": "function"
        },
        {
            "inputs": [
                {
                    "internalType": "contract IERC3156FlashBorrowerUpgradeable",
                    "name": "receiver",
                    "type": "address"
                },
                {
                    "internalType": "address",
                    "name": "token",
                    "type": "address"
                },
                {
                    "internalType": "uint256",
                    "name": "amount",
                    "type": "uint256"
                },
                {
                    "internalType": "bytes",
                    "name": "data",
                    "type": "bytes"
                }
            ],
            "name": "flashLoan",
            "outputs": [
                {
                    "internalType": "bool",
                    "name": "",
                    "type": "bool"
                }
            ],
            "stateMutability": "nonpayable",
            "type": "function"
        },
        {
            "inputs": [],
            "name": "flashLoanFee",
            "outputs": [
                {
                    "internalType": "uint256",
                    "name": "",
                    "type": "uint256"
                }
            ],
            "stateMutability": "view",
            "type": "function"
        },
        {
            "inputs": [
                {
                    "internalType": "address",
                    "name": "spender",
                    "type": "address"
                },
                {
                    "internalType": "uint256",
                    "name": "addedValue",
                    "type": "uint256"
                }
            ],
            "name": "increaseAllowance",
            "outputs": [
                {
                    "internalType": "bool",
                    "name": "",
                    "type": "bool"
                }
            ],
            "stateMutability": "nonpayable",
            "type": "function"
        },
        {
            "inputs": [
                {
                    "internalType": "string",
                    "name": "_name",
                    "type": "string"
                },
                {
                    "internalType": "string",
                    "name": "_symbol",
                    "type": "string"
                },
                {
                    "internalType": "address",
                    "name": "_pool",
                    "type": "address"
                },
                {
                    "internalType": "address",
                    "name": "_synthex",
                    "type": "address"
                }
            ],
            "name": "initialize",
            "outputs": [],
            "stateMutability": "nonpayable",
            "type": "function"
        },
        {
            "inputs": [
                {
                    "internalType": "address",
                    "name": "account",
                    "type": "address"
                },
                {
                    "internalType": "uint256",
                    "name": "amount",
                    "type": "uint256"
                },
                {
                    "internalType": "address",
                    "name": "outAsset",
                    "type": "address"
                }
            ],
            "name": "liquidate",
            "outputs": [],
            "stateMutability": "nonpayable",
            "type": "function"
        },
        {
            "inputs": [
                {
                    "internalType": "address",
                    "name": "token",
                    "type": "address"
                }
            ],
            "name": "maxFlashLoan",
            "outputs": [
                {
                    "internalType": "uint256",
                    "name": "",
                    "type": "uint256"
                }
            ],
            "stateMutability": "view",
            "type": "function"
        },
        {
            "inputs": [
                {
                    "internalType": "uint256",
                    "name": "amount",
                    "type": "uint256"
                }
            ],
            "name": "mint",
            "outputs": [],
            "stateMutability": "nonpayable",
            "type": "function"
        },
        {
            "inputs": [
                {
                    "internalType": "address",
                    "name": "account",
                    "type": "address"
                },
                {
                    "internalType": "uint256",
                    "name": "amount",
                    "type": "uint256"
                }
            ],
            "name": "mintInternal",
            "outputs": [],
            "stateMutability": "nonpayable",
            "type": "function"
        },
        {
            "inputs": [
                {
                    "internalType": "bytes[]",
                    "name": "data",
                    "type": "bytes[]"
                }
            ],
            "name": "multicall",
            "outputs": [
                {
                    "internalType": "bytes[]",
                    "name": "results",
                    "type": "bytes[]"
                }
            ],
            "stateMutability": "nonpayable",
            "type": "function"
        },
        {
            "inputs": [],
            "name": "name",
            "outputs": [
                {
                    "internalType": "string",
                    "name": "",
                    "type": "string"
                }
            ],
            "stateMutability": "view",
            "type": "function"
        },
        {
            "inputs": [
                {
                    "internalType": "address",
                    "name": "owner",
                    "type": "address"
                }
            ],
            "name": "nonces",
            "outputs": [
                {
                    "internalType": "uint256",
                    "name": "",
                    "type": "uint256"
                }
            ],
            "stateMutability": "view",
            "type": "function"
        },
        {
            "inputs": [],
            "name": "paused",
            "outputs": [
                {
                    "internalType": "bool",
                    "name": "",
                    "type": "bool"
                }
            ],
            "stateMutability": "view",
            "type": "function"
        },
        {
            "inputs": [
                {
                    "internalType": "address",
                    "name": "owner",
                    "type": "address"
                },
                {
                    "internalType": "address",
                    "name": "spender",
                    "type": "address"
                },
                {
                    "internalType": "uint256",
                    "name": "value",
                    "type": "uint256"
                },
                {
                    "internalType": "uint256",
                    "name": "deadline",
                    "type": "uint256"
                },
                {
                    "internalType": "uint8",
                    "name": "v",
                    "type": "uint8"
                },
                {
                    "internalType": "bytes32",
                    "name": "r",
                    "type": "bytes32"
                },
                {
                    "internalType": "bytes32",
                    "name": "s",
                    "type": "bytes32"
                }
            ],
            "name": "permit",
            "outputs": [],
            "stateMutability": "nonpayable",
            "type": "function"
        },
        {
            "inputs": [],
            "name": "pool",
            "outputs": [
                {
                    "internalType": "contract Pool",
                    "name": "",
                    "type": "address"
                }
            ],
            "stateMutability": "view",
            "type": "function"
        },
        {
            "inputs": [
                {
                    "internalType": "uint256",
                    "name": "amount",
                    "type": "uint256"
                },
                {
                    "internalType": "address",
                    "name": "synthTo",
                    "type": "address"
                }
            ],
            "name": "swap",
            "outputs": [],
            "stateMutability": "nonpayable",
            "type": "function"
        },
        {
            "inputs": [],
            "name": "symbol",
            "outputs": [
                {
                    "internalType": "string",
                    "name": "",
                    "type": "string"
                }
            ],
            "stateMutability": "view",
            "type": "function"
        },
        {
            "inputs": [],
            "name": "synthex",
            "outputs": [
                {
                    "internalType": "contract SyntheX",
                    "name": "",
                    "type": "address"
                }
            ],
            "stateMutability": "view",
            "type": "function"
        },
        {
            "inputs": [],
            "name": "totalSupply",
            "outputs": [
                {
                    "internalType": "uint256",
                    "name": "",
                    "type": "uint256"
                }
            ],
            "stateMutability": "view",
            "type": "function"
        },
        {
            "inputs": [
                {
                    "internalType": "address",
                    "name": "to",
                    "type": "address"
                },
                {
                    "internalType": "uint256",
                    "name": "amount",
                    "type": "uint256"
                }
            ],
            "name": "transfer",
            "outputs": [
                {
                    "internalType": "bool",
                    "name": "",
                    "type": "bool"
                }
            ],
            "stateMutability": "nonpayable",
            "type": "function"
        },
        {
            "inputs": [
                {
                    "internalType": "address",
                    "name": "from",
                    "type": "address"
                },
                {
                    "internalType": "address",
                    "name": "to",
                    "type": "address"
                },
                {
                    "internalType": "uint256",
                    "name": "amount",
                    "type": "uint256"
                }
            ],
            "name": "transferFrom",
            "outputs": [
                {
                    "internalType": "bool",
                    "name": "",
                    "type": "bool"
                }
            ],
            "stateMutability": "nonpayable",
            "type": "function"
        },
        {
            "inputs": [
                {
                    "internalType": "uint256",
                    "name": "_flashLoanFee",
                    "type": "uint256"
                }
            ],
            "name": "updateFlashFee",
            "outputs": [],
            "stateMutability": "nonpayable",
            "type": "function"
        }
    ],
    "bytecode": "0x608060405234801561001057600080fd5b506124bf806100206000396000f3fe608060405234801561001057600080fd5b50600436106101e55760003560e01c8063613255ab1161010f578063a9059cbb116100a2578063d505accf11610071578063d505accf14610419578063d9d98ce41461042c578063dd62ed3e1461043f578063e1f1c4a71461045257600080fd5b8063a9059cbb146103c0578063ac9650d8146103d3578063d3986f08146103f3578063d4d92b141461040657600080fd5b806395d89b41116100de57806395d89b411461037e578063a0712d6814610386578063a301f68414610399578063a457c2d7146103ad57600080fd5b8063613255ab1461031c57806370a082311461032f5780637ecebe00146103585780638f15b4141461036b57600080fd5b8063353c0573116101875780634847cdc8116101565780634847cdc8146102e15780634914c008146102eb5780635c975abb146102fe5780635cffe9de1461030957600080fd5b8063353c0573146102a05780633644e515146102b357806339509351146102bb57806342966c68146102ce57600080fd5b806316f0115b116101c357806316f0115b1461024057806318160ddd1461026c57806323b872dd1461027e578063313ce5671461029157600080fd5b806306fdde03146101ea578063095ea7b31461020857806311b6e6b41461022b575b600080fd5b6101f2610463565b6040516101ff9190611d47565b60405180910390f35b61021b610216366004611d6f565b6104f5565b60405190151581526020016101ff565b61023e610239366004611d9b565b61050d565b005b61016254610254906001600160a01b031681565b6040516001600160a01b0390911681526020016101ff565b6035545b6040519081526020016101ff565b61021b61028c366004611db4565b610623565b604051601281526020016101ff565b61023e6102ae366004611d6f565b610649565b6102706106b2565b61021b6102c9366004611d6f565b6106c1565b61023e6102dc366004611d9b565b6106e3565b6102706101645481565b61023e6102f9366004611df5565b61078f565b60fe5460ff1661021b565b61021b610317366004611e37565b61084e565b61027061032a366004611ed6565b610a32565b61027061033d366004611ed6565b6001600160a01b031660009081526033602052604090205490565b610270610366366004611ed6565b610a60565b61023e610379366004611f96565b610a7e565b6101f2610bd7565b61023e610394366004611d9b565b610be6565b61016354610254906001600160a01b031681565b61021b6103bb366004611d6f565b610c90565b61021b6103ce366004611d6f565b610d16565b6103e66103e136600461201f565b610d24565b6040516101ff9190612094565b61023e6104013660046120f6565b610e19565b61023e610414366004611d6f565b610eca565b61023e610427366004612126565b610f2f565b61027061043a366004611d6f565b611093565b61027061044d36600461219d565b6110f7565b61027069021e19e0c9bab240000081565b606060368054610472906121cb565b80601f016020809104026020016040519081016040528092919081815260200182805461049e906121cb565b80156104eb5780601f106104c0576101008083540402835291602001916104eb565b820191906000526020600020905b8154815290600101906020018083116104ce57829003601f168201915b5050505050905090565b600033610503818585611122565b5060019392505050565b6101635460405163b44784f360e01b81523360048201526001600160a01b039091169063b44784f390602401602060405180830381865afa158015610556573d6000803e3d6000fd5b505050506040513d601f19601f8201168201806040525081019061057a9190612200565b6105e75760405162461bcd60e51b815260206004820152603360248201527f53796e746845524332303a204f6e6c79204c325f41444d494e5f524f4c452063604482015272616e2075706461746520666c6173682066656560681b60648201526084015b60405180910390fd5b6101648190556040518181527f710ea8a184c4955fdf6d2ace9a517d6118189b25fc74e626ce2609c63dff7c299060200160405180910390a150565b600033610631858285611246565b61063c8585856112c0565b60019150505b9392505050565b610162546001600160a01b031633146106a45760405162461bcd60e51b815260206004820152601e60248201527f53796e746845524332303a204f6e6c7920706f6f6c2063616e2063616c6c000060448201526064016105de565b6106ae828261146b565b5050565b60006106bc61159f565b905090565b6000336105038185856106d483836110f7565b6106de9190612238565b611122565b6106eb61161a565b6000811161070b5760405162461bcd60e51b81526004016105de90612250565b610162546040516202fbdf60ee1b8152336004820152602481018390526001600160a01b039091169063bef7c000906044016020604051808303816000875af115801561075c573d6000803e3d6000fd5b505050506040513d601f19601f820116820180604052508101906107809190612299565b905061078c338261146b565b50565b61079761161a565b600082116107b75760405162461bcd60e51b81526004016105de90612250565b6101625460405163c2b6befb60e01b81523360048201526001600160a01b0385811660248301526044820185905283811660648301529091169063c2b6befb906084016020604051808303816000875af1158015610819573d6000803e3d6000fd5b505050506040513d601f19601f8201168201806040525081019061083d9190612299565b9150610849338361146b565b505050565b600061085985610a32565b8411156108bc5760405162461bcd60e51b815260206004820152602b60248201527f4552433230466c6173684d696e743a20616d6f756e742065786365656473206d60448201526a30bc233630b9b42637b0b760a91b60648201526084016105de565b60006108c88686611093565b90506108d48786611662565b6040516323e30c8b60e01b81527f439148f0bbc682ca079e46d6e2c2f0c1e3b820f1a291b069d8882abf8cf18dd9906001600160a01b038916906323e30c8b9061092c9033908b908b9088908c908c906004016122b2565b6020604051808303816000875af115801561094b573d6000803e3d6000fd5b505050506040513d601f19601f8201168201806040525081019061096f9190612299565b146109c85760405162461bcd60e51b8152602060048201526024808201527f4552433230466c6173684d696e743a20696e76616c69642072657475726e2076604482015263616c756560e01b60648201526084016105de565b60006109de88306109d9858a612238565b611246565b8115806109f257506001600160a01b038116155b15610a0f57610a0a88610a058489612238565b61146b565b610a24565b610a19888761146b565b610a248882846112c0565b506001979650505050505050565b60006001600160a01b0382163014610a4b576000610a5a565b603554610a5a9060001961230e565b92915050565b6001600160a01b038116600090815260996020526040812054610a5a565b600054610100900460ff1615808015610a9e5750600054600160ff909116105b80610ab85750303b158015610ab8575060005460ff166001145b610b1b5760405162461bcd60e51b815260206004820152602e60248201527f496e697469616c697a61626c653a20636f6e747261637420697320616c72656160448201526d191e481a5b9a5d1a585b1a5e995960921b60648201526084016105de565b6000805460ff191660011790558015610b3e576000805461ff0019166101001790555b610b488585611723565b610b50611754565b610b5861177b565b61016280546001600160a01b038086166001600160a01b0319928316179092556101638054928516929091169190911790558015610bd0576000805461ff0019169055604051600181527f7f26b83ff96e1f2b6a682f133852f6798a09c465da95921460cefb38474024989060200160405180910390a15b5050505050565b606060378054610472906121cb565b610bee61161a565b60008111610c0e5760405162461bcd60e51b81526004016105de90612250565b61016254604051630dee350560e21b8152336004820152602481018390526001600160a01b03909116906337b8d414906044016020604051808303816000875af1158015610c60573d6000803e3d6000fd5b505050506040513d601f19601f82011682018060405250810190610c849190612299565b905061078c3382611662565b60003381610c9e82866110f7565b905083811015610cfe5760405162461bcd60e51b815260206004820152602560248201527f45524332303a2064656372656173656420616c6c6f77616e63652062656c6f77604482015264207a65726f60d81b60648201526084016105de565b610d0b8286868403611122565b506001949350505050565b6000336105038185856112c0565b60608167ffffffffffffffff811115610d3f57610d3f611ef3565b604051908082528060200260200182016040528015610d7257816020015b6060815260200190600190039081610d5d5790505b50905060005b82811015610e1257610de230858584818110610d9657610d96612325565b9050602002810190610da8919061233b565b8080601f0160208091040260200160405190810160405280939291908181526020018383808284376000920191909152506117aa92505050565b828281518110610df457610df4612325565b60200260200101819052508080610e0a90612389565b915050610d78565b5092915050565b610e2161161a565b60008211610e415760405162461bcd60e51b81526004016105de90612250565b6101625460405162a6b0fb60e71b8152336004820152602481018490526001600160a01b038381166044830152909116906353587d80906064016020604051808303816000875af1158015610e9a573d6000803e3d6000fd5b505050506040513d601f19601f82011682018060405250810190610ebe9190612299565b91506106ae338361146b565b610162546001600160a01b03163314610f255760405162461bcd60e51b815260206004820152601e60248201527f53796e746845524332303a204f6e6c7920706f6f6c2063616e2063616c6c000060448201526064016105de565b6106ae8282611662565b83421115610f7f5760405162461bcd60e51b815260206004820152601d60248201527f45524332305065726d69743a206578706972656420646561646c696e6500000060448201526064016105de565b60007f6e71edae12b1b97f4d1f60370fef10105fa2faae0126114a169c64845d6126c9888888610fae8c61189e565b6040805160208101969096526001600160a01b0394851690860152929091166060840152608083015260a082015260c0810186905260e0016040516020818303038152906040528051906020012090506000611009826118c6565b9050600061101982878787611914565b9050896001600160a01b0316816001600160a01b03161461107c5760405162461bcd60e51b815260206004820152601e60248201527f45524332305065726d69743a20696e76616c6964207369676e6174757265000060448201526064016105de565b6110878a8a8a611122565b50505050505050505050565b60006001600160a01b03831630146110ed5760405162461bcd60e51b815260206004820152601b60248201527f4552433230466c6173684d696e743a2077726f6e6720746f6b656e000000000060448201526064016105de565b610642838361193c565b6001600160a01b03918216600090815260346020908152604080832093909416825291909152205490565b6001600160a01b0383166111845760405162461bcd60e51b8152602060048201526024808201527f45524332303a20617070726f76652066726f6d20746865207a65726f206164646044820152637265737360e01b60648201526084016105de565b6001600160a01b0382166111e55760405162461bcd60e51b815260206004820152602260248201527f45524332303a20617070726f766520746f20746865207a65726f206164647265604482015261737360f01b60648201526084016105de565b6001600160a01b0383811660008181526034602090815260408083209487168084529482529182902085905590518481527f8c5be1e5ebec7d5bd14f71427d1e84f3dd0314c0f7b2291e5b200ac8c7c3b925910160405180910390a3505050565b600061125284846110f7565b905060001981146112ba57818110156112ad5760405162461bcd60e51b815260206004820152601d60248201527f45524332303a20696e73756666696369656e7420616c6c6f77616e636500000060448201526064016105de565b6112ba8484848403611122565b50505050565b6001600160a01b0383166113245760405162461bcd60e51b815260206004820152602560248201527f45524332303a207472616e736665722066726f6d20746865207a65726f206164604482015264647265737360d81b60648201526084016105de565b6001600160a01b0382166113865760405162461bcd60e51b815260206004820152602360248201527f45524332303a207472616e7366657220746f20746865207a65726f206164647260448201526265737360e81b60648201526084016105de565b6001600160a01b038316600090815260336020526040902054818110156113fe5760405162461bcd60e51b815260206004820152602660248201527f45524332303a207472616e7366657220616d6f756e7420657863656564732062604482015265616c616e636560d01b60648201526084016105de565b6001600160a01b0380851660008181526033602052604080822086860390559286168082529083902080548601905591517fddf252ad1be2c89b69c2b068fc378daa952ba7f163c4a11628f55a4df523b3ef9061145e9086815260200190565b60405180910390a36112ba565b6001600160a01b0382166114cb5760405162461bcd60e51b815260206004820152602160248201527f45524332303a206275726e2066726f6d20746865207a65726f206164647265736044820152607360f81b60648201526084016105de565b6001600160a01b0382166000908152603360205260409020548181101561153f5760405162461bcd60e51b815260206004820152602260248201527f45524332303a206275726e20616d6f756e7420657863656564732062616c616e604482015261636560f01b60648201526084016105de565b6001600160a01b03831660008181526033602090815260408083208686039055603580548790039055518581529192917fddf252ad1be2c89b69c2b068fc378daa952ba7f163c4a11628f55a4df523b3ef910160405180910390a3505050565b60006106bc7f8b73c3c69bb8fe3d512ecc4cf759cc79239f7b179b0ffacaa9a75d522b39400f6115ce60655490565b6066546040805160208101859052908101839052606081018290524660808201523060a082015260009060c0016040516020818303038152906040528051906020012090509392505050565b60fe5460ff16156116605760405162461bcd60e51b815260206004820152601060248201526f14185d5cd8589b194e881c185d5cd95960821b60448201526064016105de565b565b6001600160a01b0382166116b85760405162461bcd60e51b815260206004820152601f60248201527f45524332303a206d696e7420746f20746865207a65726f20616464726573730060448201526064016105de565b80603560008282546116ca9190612238565b90915550506001600160a01b0382166000818152603360209081526040808320805486019055518481527fddf252ad1be2c89b69c2b068fc378daa952ba7f163c4a11628f55a4df523b3ef910160405180910390a35050565b600054610100900460ff1661174a5760405162461bcd60e51b81526004016105de906123a4565b6106ae8282611968565b600054610100900460ff166116605760405162461bcd60e51b81526004016105de906123a4565b600054610100900460ff166117a25760405162461bcd60e51b81526004016105de906123a4565b6116606119b6565b60606001600160a01b0383163b6118125760405162461bcd60e51b815260206004820152602660248201527f416464726573733a2064656c65676174652063616c6c20746f206e6f6e2d636f6044820152651b9d1c9858dd60d21b60648201526084016105de565b600080846001600160a01b03168460405161182d91906123ef565b600060405180830381855af49150503d8060008114611868576040519150601f19603f3d011682016040523d82523d6000602084013e61186d565b606091505b50915091506118958282604051806060016040528060278152602001612463602791396119e9565b95945050505050565b6001600160a01b03811660009081526099602052604090208054600181018255905b50919050565b6000610a5a6118d361159f565b8360405161190160f01b6020820152602281018390526042810182905260009060620160405160208183030381529060405280519060200120905092915050565b600080600061192587878787611a02565b9150915061193281611ac6565b5095945050505050565b600061064269021e19e0c9bab24000006119626101645485611c1490919063ffffffff16565b90611c20565b600054610100900460ff1661198f5760405162461bcd60e51b81526004016105de906123a4565b81516119a2906036906020850190611c56565b508051610849906037906020840190611c56565b600054610100900460ff166119dd5760405162461bcd60e51b81526004016105de906123a4565b60fe805460ff19169055565b606083156119f8575081610642565b6106428383611c2c565b6000807f7fffffffffffffffffffffffffffffff5d576e7357a4501ddfe92f46681b20a0831115611a395750600090506003611abd565b6040805160008082526020820180845289905260ff881692820192909252606081018690526080810185905260019060a0016020604051602081039080840390855afa158015611a8d573d6000803e3d6000fd5b5050604051601f1901519150506001600160a01b038116611ab657600060019250925050611abd565b9150600090505b94509492505050565b6000816004811115611ada57611ada61240b565b1415611ae35750565b6001816004811115611af757611af761240b565b1415611b455760405162461bcd60e51b815260206004820152601860248201527f45434453413a20696e76616c6964207369676e6174757265000000000000000060448201526064016105de565b6002816004811115611b5957611b5961240b565b1415611ba75760405162461bcd60e51b815260206004820152601f60248201527f45434453413a20696e76616c6964207369676e6174757265206c656e6774680060448201526064016105de565b6003816004811115611bbb57611bbb61240b565b141561078c5760405162461bcd60e51b815260206004820152602260248201527f45434453413a20696e76616c6964207369676e6174757265202773272076616c604482015261756560f01b60648201526084016105de565b60006106428284612421565b60006106428284612440565b815115611c3c5781518083602001fd5b8060405162461bcd60e51b81526004016105de9190611d47565b828054611c62906121cb565b90600052602060002090601f016020900481019282611c845760008555611cca565b82601f10611c9d57805160ff1916838001178555611cca565b82800160010185558215611cca579182015b82811115611cca578251825591602001919060010190611caf565b50611cd6929150611cda565b5090565b5b80821115611cd65760008155600101611cdb565b60005b83811015611d0a578181015183820152602001611cf2565b838111156112ba5750506000910152565b60008151808452611d33816020860160208601611cef565b601f01601f19169290920160200192915050565b6020815260006106426020830184611d1b565b6001600160a01b038116811461078c57600080fd5b60008060408385031215611d8257600080fd5b8235611d8d81611d5a565b946020939093013593505050565b600060208284031215611dad57600080fd5b5035919050565b600080600060608486031215611dc957600080fd5b8335611dd481611d5a565b92506020840135611de481611d5a565b929592945050506040919091013590565b600080600060608486031215611e0a57600080fd5b8335611e1581611d5a565b9250602084013591506040840135611e2c81611d5a565b809150509250925092565b600080600080600060808688031215611e4f57600080fd5b8535611e5a81611d5a565b94506020860135611e6a81611d5a565b935060408601359250606086013567ffffffffffffffff80821115611e8e57600080fd5b818801915088601f830112611ea257600080fd5b813581811115611eb157600080fd5b896020828501011115611ec357600080fd5b9699959850939650602001949392505050565b600060208284031215611ee857600080fd5b813561064281611d5a565b634e487b7160e01b600052604160045260246000fd5b600082601f830112611f1a57600080fd5b813567ffffffffffffffff80821115611f3557611f35611ef3565b604051601f8301601f19908116603f01168101908282118183101715611f5d57611f5d611ef3565b81604052838152866020858801011115611f7657600080fd5b836020870160208301376000602085830101528094505050505092915050565b60008060008060808587031215611fac57600080fd5b843567ffffffffffffffff80821115611fc457600080fd5b611fd088838901611f09565b95506020870135915080821115611fe657600080fd5b50611ff387828801611f09565b935050604085013561200481611d5a565b9150606085013561201481611d5a565b939692955090935050565b6000806020838503121561203257600080fd5b823567ffffffffffffffff8082111561204a57600080fd5b818501915085601f83011261205e57600080fd5b81358181111561206d57600080fd5b8660208260051b850101111561208257600080fd5b60209290920196919550909350505050565b6000602080830181845280855180835260408601915060408160051b870101925083870160005b828110156120e957603f198886030184526120d7858351611d1b565b945092850192908501906001016120bb565b5092979650505050505050565b6000806040838503121561210957600080fd5b82359150602083013561211b81611d5a565b809150509250929050565b600080600080600080600060e0888a03121561214157600080fd5b873561214c81611d5a565b9650602088013561215c81611d5a565b95506040880135945060608801359350608088013560ff8116811461218057600080fd5b9699959850939692959460a0840135945060c09093013592915050565b600080604083850312156121b057600080fd5b82356121bb81611d5a565b9150602083013561211b81611d5a565b600181811c908216806121df57607f821691505b602082108114156118c057634e487b7160e01b600052602260045260246000fd5b60006020828403121561221257600080fd5b8151801515811461064257600080fd5b634e487b7160e01b600052601160045260246000fd5b6000821982111561224b5761224b612222565b500190565b60208082526029908201527f53796e746845524332303a20416d6f756e74206d75737420626520677265617460408201526806572207468616e20360bc1b606082015260800190565b6000602082840312156122ab57600080fd5b5051919050565b6001600160a01b03878116825286166020820152604081018590526060810184905260a06080820181905281018290526000828460c0840137600060c0848401015260c0601f19601f8501168301019050979650505050505050565b60008282101561232057612320612222565b500390565b634e487b7160e01b600052603260045260246000fd5b6000808335601e1984360301811261235257600080fd5b83018035915067ffffffffffffffff82111561236d57600080fd5b60200191503681900382131561238257600080fd5b9250929050565b600060001982141561239d5761239d612222565b5060010190565b6020808252602b908201527f496e697469616c697a61626c653a20636f6e7472616374206973206e6f74206960408201526a6e697469616c697a696e6760a81b606082015260800190565b60008251612401818460208701611cef565b9190910192915050565b634e487b7160e01b600052602160045260246000fd5b600081600019048311821515161561243b5761243b612222565b500290565b60008261245d57634e487b7160e01b600052601260045260246000fd5b50049056fe416464726573733a206c6f772d6c6576656c2064656c65676174652063616c6c206661696c6564a2646970667358221220abcab13038f26d32fe1e103ca2b4bbe40f66b561ed873a2f723703deaf61adc164736f6c634300080a0033",
    "linkReferences": {},
    "deployedLinkReferences": {}
}